{
  "address": "0x902032b1Fb9990F24a455f56C86ca41e89AA6D4B",
  "abi": [
    {
      "inputs": [
        {
          "internalType": "address",
          "name": "invalidContract",
          "type": "address"
        }
      ],
      "name": "NotAContract",
      "type": "error"
    },
    {
      "inputs": [
        {
          "internalType": "address",
          "name": "_addressToCheck",
          "type": "address"
        }
      ],
      "name": "checkIsContarct",
      "outputs": [],
      "stateMutability": "view",
      "type": "function"
    }
  ],
  "transactionHash": "0xa03bbe75288ae3ee53a81eddf3905c9612bf8ef1e406817d87c94673f62e6d9a",
  "args": [],
  "numDeployments": 1,
  "solcInputHash": "58082fd3a0633d9352f57a3c36bed851",
  "bytecode": "0x61014961003a600b82828239805160001a60731461002d57634e487b7160e01b600052600060045260246000fd5b30600052607381538281f3fe73000000000000000000000000000000000000000030146080604052600436106100355760003560e01c8063ef6770c71461003a575b600080fd5b61004d6100483660046100d6565b61004f565b005b803f7fc5d2460186f7233c927e7db2dcc703c0e500b653ca82273b7bfad8045d85a470811480159061008057508015155b6100d2576040517f8a8b41ec00000000000000000000000000000000000000000000000000000000815273ffffffffffffffffffffffffffffffffffffffff8316600482015260240160405180910390fd5b5050565b6000602082840312156100e857600080fd5b813573ffffffffffffffffffffffffffffffffffffffff8116811461010c57600080fd5b939250505056fea2646970667358221220e15ed349fc713c082db0973d1d7d9ea602cfc5c2a0090ce90d9865868a2441dc64736f6c63430008130033",
  "devdoc": {
    "author": "Mihirsinh Parmar <mihirsinh.parmar.it@gmail.com>",
    "details": "uses EXTCODEHASH to see if an address is a contract",
    "kind": "dev",
    "methods": {
      "checkIsContarct(address)": {
        "details": "uses EXTCODEHASH, if not a contract, reverts",
        "params": {
          "_addressToCheck": "address to check if it's a contract or not"
        }
      }
    },
    "title": "Contarct Checker (Library)",
    "version": 1
  },
  "userdoc": {
    "errors": {
      "NotAContract(address)": [
        {
          "notice": "When an address is not a contract"
        }
      ]
    },
    "kind": "user",
    "methods": {
      "checkIsContarct(address)": {
        "notice": "check if an address is contract or not"
      }
    },
    "notice": "a library to check if a address is a contract",
    "version": 1
  },
  "storageLayout": {
    "storage": [],
    "types": null
  }
}